{
  "address": "0x2634Ca9f460bDc1708C0a0a6D690541236dCe4D2",
  "abi": [
    {
      "inputs": [
        {
          "internalType": "address",
          "name": "vrfCoordinatorV2",
          "type": "address"
        },
        {
          "internalType": "uint256",
          "name": "entranceFee",
          "type": "uint256"
        },
        {
          "internalType": "bytes32",
          "name": "gasLane",
          "type": "bytes32"
        },
        {
          "internalType": "uint64",
          "name": "subscriptionId",
          "type": "uint64"
        },
        {
          "internalType": "uint32",
          "name": "callbackGasLimit",
          "type": "uint32"
        },
        {
          "internalType": "uint256",
          "name": "interval",
          "type": "uint256"
        }
      ],
      "stateMutability": "nonpayable",
      "type": "constructor"
    },
    {
      "inputs": [
        {
          "internalType": "address",
          "name": "have",
          "type": "address"
        },
        {
          "internalType": "address",
          "name": "want",
          "type": "address"
        }
      ],
      "name": "OnlyCoordinatorCanFulfill",
      "type": "error"
    },
    {
      "inputs": [],
      "name": "Raffle__NotEnoughETHEntered",
      "type": "error"
    },
    {
      "inputs": [],
      "name": "Raffle__Notopen",
      "type": "error"
    },
    {
      "inputs": [],
      "name": "Raffle__TransferFailed",
      "type": "error"
    },
    {
      "inputs": [
        {
          "internalType": "uint256",
          "name": "currentBalance",
          "type": "uint256"
        },
        {
          "internalType": "uint256",
          "name": "numPlayers",
          "type": "uint256"
        },
        {
          "internalType": "uint256",
          "name": "raffleState",
          "type": "uint256"
        }
      ],
      "name": "Raffle__upKeepNotNeeded",
      "type": "error"
    },
    {
      "anonymous": false,
      "inputs": [
        {
          "indexed": true,
          "internalType": "address",
          "name": "player",
          "type": "address"
        }
      ],
      "name": "RaffleEnter",
      "type": "event"
    },
    {
      "anonymous": false,
      "inputs": [
        {
          "indexed": true,
          "internalType": "uint256",
          "name": "requestId",
          "type": "uint256"
        }
      ],
      "name": "RequestedRaffleWinner",
      "type": "event"
    },
    {
      "anonymous": false,
      "inputs": [
        {
          "indexed": true,
          "internalType": "address",
          "name": "winner",
          "type": "address"
        }
      ],
      "name": "WinnerPicked",
      "type": "event"
    },
    {
      "inputs": [
        {
          "internalType": "bytes",
          "name": "",
          "type": "bytes"
        }
      ],
      "name": "checkUpkeep",
      "outputs": [
        {
          "internalType": "bool",
          "name": "upkeepNeeded",
          "type": "bool"
        },
        {
          "internalType": "bytes",
          "name": "",
          "type": "bytes"
        }
      ],
      "stateMutability": "nonpayable",
      "type": "function"
    },
    {
      "inputs": [],
      "name": "enterRaffle",
      "outputs": [],
      "stateMutability": "payable",
      "type": "function"
    },
    {
      "inputs": [],
      "name": "getEntranceFee",
      "outputs": [
        {
          "internalType": "uint256",
          "name": "",
          "type": "uint256"
        }
      ],
      "stateMutability": "view",
      "type": "function"
    },
    {
      "inputs": [],
      "name": "getInterval",
      "outputs": [
        {
          "internalType": "uint256",
          "name": "",
          "type": "uint256"
        }
      ],
      "stateMutability": "view",
      "type": "function"
    },
    {
      "inputs": [],
      "name": "getLatestTimeStamp",
      "outputs": [
        {
          "internalType": "uint256",
          "name": "",
          "type": "uint256"
        }
      ],
      "stateMutability": "view",
      "type": "function"
    },
    {
      "inputs": [],
      "name": "getNumWords",
      "outputs": [
        {
          "internalType": "uint256",
          "name": "",
          "type": "uint256"
        }
      ],
      "stateMutability": "pure",
      "type": "function"
    },
    {
      "inputs": [],
      "name": "getNumberOfPlayers",
      "outputs": [
        {
          "internalType": "uint256",
          "name": "",
          "type": "uint256"
        }
      ],
      "stateMutability": "view",
      "type": "function"
    },
    {
      "inputs": [
        {
          "internalType": "uint256",
          "name": "index",
          "type": "uint256"
        }
      ],
      "name": "getPlayer",
      "outputs": [
        {
          "internalType": "address",
          "name": "",
          "type": "address"
        }
      ],
      "stateMutability": "view",
      "type": "function"
    },
    {
      "inputs": [],
      "name": "getRaffleState",
      "outputs": [
        {
          "internalType": "enum Raffle.RaffleState",
          "name": "",
          "type": "uint8"
        }
      ],
      "stateMutability": "view",
      "type": "function"
    },
    {
      "inputs": [],
      "name": "getRecentWinner",
      "outputs": [
        {
          "internalType": "address",
          "name": "",
          "type": "address"
        }
      ],
      "stateMutability": "view",
      "type": "function"
    },
    {
      "inputs": [],
      "name": "getRequestConfirmations",
      "outputs": [
        {
          "internalType": "uint256",
          "name": "",
          "type": "uint256"
        }
      ],
      "stateMutability": "pure",
      "type": "function"
    },
    {
      "inputs": [
        {
          "internalType": "bytes",
          "name": "",
          "type": "bytes"
        }
      ],
      "name": "performUpkeep",
      "outputs": [],
      "stateMutability": "nonpayable",
      "type": "function"
    },
    {
      "inputs": [
        {
          "internalType": "uint256",
          "name": "requestId",
          "type": "uint256"
        },
        {
          "internalType": "uint256[]",
          "name": "randomWords",
          "type": "uint256[]"
        }
      ],
      "name": "rawFulfillRandomWords",
      "outputs": [],
      "stateMutability": "nonpayable",
      "type": "function"
    }
  ],
  "transactionHash": "0xb5a3c9ffcd96219884c88d05bad92cda26022eb32133fba3df11677a82a0169f",
  "args": [
    "0x2ca8e0c643bde4c2e08ab1fa0da3401adad7734d",
    "10000000000000000",
    "0x79d3d8832d904592c0bf9818b621522c988bb8b0c05cdc3b15aea1b6e8db0c15",
    "6660",
    "500000",
    "30"
  ],
  "numDeployments": 2,
  "solcInputHash": "44518562026ce39736539eebdd5e523f",
  "bytecode": "0x6101606040523480156200001257600080fd5b506040516200182c3803806200182c8339818101604052810190620000389190620002a0565b858073ffffffffffffffffffffffffffffffffffffffff1660808173ffffffffffffffffffffffffffffffffffffffff1660601b81525050508461014081815250508573ffffffffffffffffffffffffffffffffffffffff1660a08173ffffffffffffffffffffffffffffffffffffffff1660601b815250508360c081815250508267ffffffffffffffff1660e08167ffffffffffffffff1660c01b815250508163ffffffff166101008163ffffffff1660e01b815250506000600160146101000a81548160ff021916908360018111156200011957620001186200033c565b5b0217905550426002819055508061012081815250505050505050506200036b565b600080fd5b600073ffffffffffffffffffffffffffffffffffffffff82169050919050565b60006200016c826200013f565b9050919050565b6200017e816200015f565b81146200018a57600080fd5b50565b6000815190506200019e8162000173565b92915050565b6000819050919050565b620001b981620001a4565b8114620001c557600080fd5b50565b600081519050620001d981620001ae565b92915050565b6000819050919050565b620001f481620001df565b81146200020057600080fd5b50565b6000815190506200021481620001e9565b92915050565b600067ffffffffffffffff82169050919050565b62000239816200021a565b81146200024557600080fd5b50565b60008151905062000259816200022e565b92915050565b600063ffffffff82169050919050565b6200027a816200025f565b81146200028657600080fd5b50565b6000815190506200029a816200026f565b92915050565b60008060008060008060c08789031215620002c057620002bf6200013a565b5b6000620002d089828a016200018d565b9650506020620002e389828a01620001c8565b9550506040620002f689828a0162000203565b94505060606200030989828a0162000248565b93505060806200031c89828a0162000289565b92505060a06200032f89828a01620001c8565b9150509295509295509295565b7f4e487b7100000000000000000000000000000000000000000000000000000000600052602160045260246000fd5b60805160601c60a05160601c60c05160e05160c01c6101005160e01c6101205161014051611445620003e7600039600081816102fa01526103f70152600081816107f0015261085e015260006106a5015260006106820152600061066101526000610625015260008181610337015261038b01526114456000f3fe6080604052600436106100c25760003560e01c8063473f1ddc1161007f5780636e04ff0d116100595780636e04ff0d1461022557806391ad27b414610263578063e55ae4e81461028e578063fd6673f5146102cb576100c2565b8063473f1ddc146101a457806353a2c19a146101cf5780635f1b0fd8146101fa576100c2565b806309bc33a7146100c7578063115cbaf5146100f25780631fe543e31461011d5780632cfcc53914610146578063320229eb146101505780634585e33b1461017b575b600080fd5b3480156100d357600080fd5b506100dc6102f6565b6040516100e99190610bc6565b60405180910390f35b3480156100fe57600080fd5b5061010761031e565b6040516101149190610c58565b60405180910390f35b34801561012957600080fd5b50610144600480360381019061013f9190610e0c565b610335565b005b61014e6103f5565b005b34801561015c57600080fd5b50610165610564565b6040516101729190610bc6565b60405180910390f35b34801561018757600080fd5b506101a2600480360381019061019d9190610ec3565b61056e565b005b3480156101b057600080fd5b506101b961076d565b6040516101c69190610f51565b60405180910390f35b3480156101db57600080fd5b506101e4610797565b6040516101f19190610bc6565b60405180910390f35b34801561020657600080fd5b5061020f6107a0565b60405161021c9190610bc6565b60405180910390f35b34801561023157600080fd5b5061024c60048036038101906102479190611021565b6107ad565b60405161025a92919061110d565b60405180910390f35b34801561026f57600080fd5b5061027861085a565b6040516102859190610bc6565b60405180910390f35b34801561029a57600080fd5b506102b560048036038101906102b0919061113d565b610882565b6040516102c29190610f51565b60405180910390f35b3480156102d757600080fd5b506102e06108c9565b6040516102ed9190610bc6565b60405180910390f35b60007f0000000000000000000000000000000000000000000000000000000000000000905090565b6000600160149054906101000a900460ff16905090565b7f000000000000000000000000000000000000000000000000000000000000000073ffffffffffffffffffffffffffffffffffffffff163373ffffffffffffffffffffffffffffffffffffffff16146103e757337f00000000000000000000000000000000000000000000000000000000000000006040517f1cf993f40000000000000000000000000000000000000000000000000000000081526004016103de92919061116a565b60405180910390fd5b6103f182826108d5565b5050565b7f000000000000000000000000000000000000000000000000000000000000000034101561044f576040517fbd4e069500000000000000000000000000000000000000000000000000000000815260040160405180910390fd5b6000600181111561046357610462610be1565b5b600160149054906101000a900460ff16600181111561048557610484610be1565b5b146104bc576040517f918b275a00000000000000000000000000000000000000000000000000000000815260040160405180910390fd5b6000339080600181540180825580915050600190039060005260206000200160009091909190916101000a81548173ffffffffffffffffffffffffffffffffffffffff021916908373ffffffffffffffffffffffffffffffffffffffff1602179055503373ffffffffffffffffffffffffffffffffffffffff167f0805e1d667bddb8a95f0f09880cf94f403fb596ce79928d9f29b74203ba284d460405160405180910390a2565b6000600254905090565b6000610588604051806020016040528060008152506107ad565b509050806105f75747600080549050600160149054906101000a900460ff1660018111156105b9576105b8610be1565b5b6040517f43df4e3d0000000000000000000000000000000000000000000000000000000081526004016105ee93929190611193565b60405180910390fd5b60018060146101000a81548160ff0219169083600181111561061c5761061b610be1565b5b021790555060007f000000000000000000000000000000000000000000000000000000000000000073ffffffffffffffffffffffffffffffffffffffff16635d3b1d307f00000000000000000000000000000000000000000000000000000000000000007f000000000000000000000000000000000000000000000000000000000000000060037f000000000000000000000000000000000000000000000000000000000000000060016040518663ffffffff1660e01b81526004016106e6959493929190611242565b602060405180830381600087803b15801561070057600080fd5b505af1158015610714573d6000803e3d6000fd5b505050506040513d601f19601f8201168201806040525081019061073891906112aa565b9050807fcd6e45c8998311cab7e9d4385596cac867e20a0587194b954fa3a731c93ce78b60405160405180910390a250505050565b6000600160009054906101000a900473ffffffffffffffffffffffffffffffffffffffff16905090565b60006001905090565b6000600361ffff16905090565b600060606000600160149054906101000a900460ff1660018111156107d5576107d4610be1565b5b600060018111156107e9576107e8610be1565b5b14905060007f00000000000000000000000000000000000000000000000000000000000000006002544261081d9190611306565b1190506000806000805490501190506000804711905083801561083d5750825b80156108465750815b801561084f5750805b955050505050915091565b60007f0000000000000000000000000000000000000000000000000000000000000000905090565b60008082815481106108975761089661133a565b5b9060005260206000200160009054906101000a900473ffffffffffffffffffffffffffffffffffffffff169050919050565b60008080549050905090565b60008080549050826000815181106108f0576108ef61133a565b5b60200260200101516109029190611398565b905060008082815481106109195761091861133a565b5b9060005260206000200160009054906101000a900473ffffffffffffffffffffffffffffffffffffffff16905080600160006101000a81548173ffffffffffffffffffffffffffffffffffffffff021916908373ffffffffffffffffffffffffffffffffffffffff1602179055506000600160146101000a81548160ff021916908360018111156109ad576109ac610be1565b5b0217905550600067ffffffffffffffff8111156109cd576109cc610cc9565b5b6040519080825280602002602001820160405280156109fb5781602001602082028036833780820191505090505b5060009080519060200190610a11929190610b06565b504260028190555060008173ffffffffffffffffffffffffffffffffffffffff1647604051610a3f906113fa565b60006040518083038185875af1925050503d8060008114610a7c576040519150601f19603f3d011682016040523d82523d6000602084013e610a81565b606091505b5050905080610abc576040517fa1d04b3900000000000000000000000000000000000000000000000000000000815260040160405180910390fd5b8173ffffffffffffffffffffffffffffffffffffffff167f5b690ec4a06fe979403046eaeea5b3ce38524683c3001f662c8b5a829632f7df60405160405180910390a25050505050565b828054828255906000526020600020908101928215610b7f579160200282015b82811115610b7e5782518260006101000a81548173ffffffffffffffffffffffffffffffffffffffff021916908373ffffffffffffffffffffffffffffffffffffffff16021790555091602001919060010190610b26565b5b509050610b8c9190610b90565b5090565b5b80821115610ba9576000816000905550600101610b91565b5090565b6000819050919050565b610bc081610bad565b82525050565b6000602082019050610bdb6000830184610bb7565b92915050565b7f4e487b7100000000000000000000000000000000000000000000000000000000600052602160045260246000fd5b60028110610c2157610c20610be1565b5b50565b6000819050610c3282610c10565b919050565b6000610c4282610c24565b9050919050565b610c5281610c37565b82525050565b6000602082019050610c6d6000830184610c49565b92915050565b6000604051905090565b600080fd5b600080fd5b610c9081610bad565b8114610c9b57600080fd5b50565b600081359050610cad81610c87565b92915050565b600080fd5b6000601f19601f8301169050919050565b7f4e487b7100000000000000000000000000000000000000000000000000000000600052604160045260246000fd5b610d0182610cb8565b810181811067ffffffffffffffff82111715610d2057610d1f610cc9565b5b80604052505050565b6000610d33610c73565b9050610d3f8282610cf8565b919050565b600067ffffffffffffffff821115610d5f57610d5e610cc9565b5b602082029050602081019050919050565b600080fd5b6000610d88610d8384610d44565b610d29565b90508083825260208201905060208402830185811115610dab57610daa610d70565b5b835b81811015610dd45780610dc08882610c9e565b845260208401935050602081019050610dad565b5050509392505050565b600082601f830112610df357610df2610cb3565b5b8135610e03848260208601610d75565b91505092915050565b60008060408385031215610e2357610e22610c7d565b5b6000610e3185828601610c9e565b925050602083013567ffffffffffffffff811115610e5257610e51610c82565b5b610e5e85828601610dde565b9150509250929050565b600080fd5b60008083601f840112610e8357610e82610cb3565b5b8235905067ffffffffffffffff811115610ea057610e9f610e68565b5b602083019150836001820283011115610ebc57610ebb610d70565b5b9250929050565b60008060208385031215610eda57610ed9610c7d565b5b600083013567ffffffffffffffff811115610ef857610ef7610c82565b5b610f0485828601610e6d565b92509250509250929050565b600073ffffffffffffffffffffffffffffffffffffffff82169050919050565b6000610f3b82610f10565b9050919050565b610f4b81610f30565b82525050565b6000602082019050610f666000830184610f42565b92915050565b600080fd5b600067ffffffffffffffff821115610f8c57610f8b610cc9565b5b610f9582610cb8565b9050602081019050919050565b82818337600083830152505050565b6000610fc4610fbf84610f71565b610d29565b905082815260208101848484011115610fe057610fdf610f6c565b5b610feb848285610fa2565b509392505050565b600082601f83011261100857611007610cb3565b5b8135611018848260208601610fb1565b91505092915050565b60006020828403121561103757611036610c7d565b5b600082013567ffffffffffffffff81111561105557611054610c82565b5b61106184828501610ff3565b91505092915050565b60008115159050919050565b61107f8161106a565b82525050565b600081519050919050565b600082825260208201905092915050565b60005b838110156110bf5780820151818401526020810190506110a4565b838111156110ce576000848401525b50505050565b60006110df82611085565b6110e98185611090565b93506110f98185602086016110a1565b61110281610cb8565b840191505092915050565b60006040820190506111226000830185611076565b818103602083015261113481846110d4565b90509392505050565b60006020828403121561115357611152610c7d565b5b600061116184828501610c9e565b91505092915050565b600060408201905061117f6000830185610f42565b61118c6020830184610f42565b9392505050565b60006060820190506111a86000830186610bb7565b6111b56020830185610bb7565b6111c26040830184610bb7565b949350505050565b6000819050919050565b6111dd816111ca565b82525050565b600067ffffffffffffffff82169050919050565b611200816111e3565b82525050565b600061ffff82169050919050565b61121d81611206565b82525050565b600063ffffffff82169050919050565b61123c81611223565b82525050565b600060a08201905061125760008301886111d4565b61126460208301876111f7565b6112716040830186611214565b61127e6060830185611233565b61128b6080830184611233565b9695505050505050565b6000815190506112a481610c87565b92915050565b6000602082840312156112c0576112bf610c7d565b5b60006112ce84828501611295565b91505092915050565b7f4e487b7100000000000000000000000000000000000000000000000000000000600052601160045260246000fd5b600061131182610bad565b915061131c83610bad565b92508282101561132f5761132e6112d7565b5b828203905092915050565b7f4e487b7100000000000000000000000000000000000000000000000000000000600052603260045260246000fd5b7f4e487b7100000000000000000000000000000000000000000000000000000000600052601260045260246000fd5b60006113a382610bad565b91506113ae83610bad565b9250826113be576113bd611369565b5b828206905092915050565b600081905092915050565b50565b60006113e46000836113c9565b91506113ef826113d4565b600082019050919050565b6000611405826113d7565b915081905091905056fea2646970667358221220d07c22083a88870f4726b774ba14eba685c0361ba90d2031c3ca16399b743f1464736f6c63430008080033",
  "devdoc": {
    "author": "Victor Eni",
    "details": "This implements Chainlink VRF v2 and chainlink Keepers",
    "kind": "dev",
    "methods": {
      "checkUpkeep(bytes)": {
        "details": "this function is the function the chainlink Keeper nodes call they look for the `upKeepNeeded to return true the following should be true to return a random true 1. time interval should have passed 2. the lottery should have atleast 1 palyer and atleast some eth 3. Subscription is funded with Link 4. Lottery should be in an open state"
      }
    },
    "title": "A sample Lottery contract",
    "version": 1
  },
  "userdoc": {
    "kind": "user",
    "methods": {},
    "notice": "This contract is for creating an untamperable decentralized smart contract",
    "version": 1
  },
  "storageLayout": {
    "storage": [
      {
        "astId": 195,
        "contract": "contracts/Raffle.sol:Raffle",
        "label": "s_players",
        "offset": 0,
        "slot": "0",
        "type": "t_array(t_address)dyn_storage"
      },
      {
        "astId": 212,
        "contract": "contracts/Raffle.sol:Raffle",
        "label": "s_recentWinner",
        "offset": 0,
        "slot": "1",
        "type": "t_address"
      },
      {
        "astId": 215,
        "contract": "contracts/Raffle.sol:Raffle",
        "label": "s_raffleState",
        "offset": 20,
        "slot": "1",
        "type": "t_enum(RaffleState)192"
      },
      {
        "astId": 217,
        "contract": "contracts/Raffle.sol:Raffle",
        "label": "s_lastTimeStamp",
        "offset": 0,
        "slot": "2",
        "type": "t_uint256"
      }
    ],
    "types": {
      "t_address": {
        "encoding": "inplace",
        "label": "address",
        "numberOfBytes": "20"
      },
      "t_array(t_address)dyn_storage": {
        "base": "t_address",
        "encoding": "dynamic_array",
        "label": "address[]",
        "numberOfBytes": "32"
      },
      "t_enum(RaffleState)192": {
        "encoding": "inplace",
        "label": "enum Raffle.RaffleState",
        "numberOfBytes": "1"
      },
      "t_uint256": {
        "encoding": "inplace",
        "label": "uint256",
        "numberOfBytes": "32"
      }
    }
  }
}